:10000000F8FF022099010000F9060100B106010085
:10001000B1060100B1060100B1060100B106010000
:10002000B1060100B1060100B1060100F9060100A8
:10003000F9060100B1060100E97C010059820100C6
:10004000F9060100F9060100F9060100F9060100B0
:10005000F9060100F9060100F9060100F9060100A0
:10006000F9060100F9060100F9060100F906010090
:10007000F9060100F9060100F9060100F906010080
:10008000F9060100F9060100F9060100F906010070
:10009000F9060100F9060100F9060100F906010060
:1000A00041E401007DE50100F9060100F9060100C7
:1000B000F9060100F9060100F906010045360100C4
:1000C000F906010049410100F9060100F547010068
:1000D000F9060100E54E0100F906010089830000E0
:1000E000F9060100F9060100F9060100F906010010
:1000F000F9060100F9060100F9060100F906010000
:100100005185010065850100798501008D8501001B
:1001100029D90100715F0100F9060100F90601000B
:10012000F9060100F9060100F9060100F9060100CF
:10013000F9060100F9060100F9060100F9060100BF
:1001400001770100F906010011550100F9060100CF
:100150003D5B0100F9060100F9060100F906010006
:10016000F9060100F5830000D1E60100F90601005F
:10017000F9060100F9060100F9060100F90601007F
:10018000F9060100F9060100F9060100F90601006F
:10019000F9060100F9060100584B4CF2205210B547
:1001A0001A804DF628121A8000BF00BF10F0A8FA7E
:1001B000534B4FF030621A60524A9A60524ADA60EA
:1001C000524B4FF470021A60514A136813F4807353
:1001D00004D150490B604FF4A85313604E4B1A786A
:1001E000110703D51A7842F008021A704B4B4C499C
:1001F0002A221A704B4A4C4B8B4204D252F8040FFD
:1002000043F8040BF8E7494B494900228B4202D2DC
:1002100043F8042BFAE74749474A002352F82300E2
:1002200041F823000133662BF8D1444B444A802126
:1002300003F8011B9342FBD1424B3E4A1A60424BEA
:100240008A221A70A3F5805324225A70A0221A70B1
:100250009A799207FCD59A79D406FCD43B4A9379D3
:1002600003F00C03082B394BF9D103221A714622F3
:100270005A719A799006FCD5344A9179334B4906E4
:10028000FBD5334A4FF08271116009215160202261
:100290001A709A7902F00C020C2AFAD12D4B2E4AD0
:1002A0001A602E4B2E4A1A6000225A60072243F829
:1002B000042C2C4AC3F80C2D62B610F0C1FD154B6E
:1002C0001B68DA0705D5284810F072FD274B284A2D
:1002D0001A60284B1B785B0609D5244C244B2268F6
:1002E0009A4204D1204810F063FD0023236010F0EF
:1002F0000DFA21F09FFA18F053F9FEE70E200540A1
:1003000030800440823F04000100002B88ED00E0B3
:1003100010D0034014D0034002D0074000E0074053
:100320003819FF1F6CC80200F806FF1F3819FF1F9D
:1003300034F400200002FF1F0000000000E400E091
:1003400056E400E008ED00E00050064000400640A2
:100350004480044004800440C010050014E000E024
:10036000BFD401000000202000DD68501CE00340E5
:10037000A5C3945A00F00740FFFFFFFFFFFFFFFFF8
:10038000FFFFFFFFFFFFFFFFFFFFFFFFFFFFFFFF7D
:10039000FFFFFFFFFFFFFFFFFFFFFFFFFFFFFFFF6D
:1003A000FFFFFFFFFFFFFFFFFFFFFFFFFFFFFFFF5D
:1003B000FFFFFFFFFFFFFFFFFFFFFFFFFFFFFFFF4D
:1003C000FFFFFFFFFFFFFFFFFFFFFFFFFFFFFFFF3D
:1003D000FFFFFFFFFFFFFFFFFFFFFFFFFFFFFFFF2D
:1003E000FFFFFFFFFFFFFFFFFFFFFFFFFFFFFFFF1D
:1003F000FFFFFFFFFFFFFFFFFFFFFFFFFFFFFFFF0D
:10040000FFFFFFFFFFFFFFFFFFFFFFFFDEF9FFFF23
:1004100010B5054C237833B9044B13B10448AFF33E
:1004200000800123237010BD3819FF1F0000000059
:1004300068C80200084B10B51BB108490848AFF363
:1004400000800848036803B910BD074B002BFBD0A0
:10045000BDE81040184700BF000000003C19FF1F16
:1004600068C802003819FF1F00000000FFFFFFFFEF
:1004700008B50A220021044823F0CCFE00EB8000DE
:100480004000013080B208BD508102002DE9F047E4
:1004900090F90090B9F1010F84B00C4647D0DFF815
:1004A00008813D4F03AD204622F00AFB061E70DD99
:1004B000A0192246002312F8011B82420B44FAD1F4
:1004C000364883FB00011944DA17C2EBA11202EB94
:1004D000420202EB42129B1A0133314ADFF8B89014
:1004E0000421284622F05CF803212846D8F8008031
:1004F00016F0F0FB3146204616F0ECFB38688378A6
:100500008BB103787BB10123294600930322434634
:10051000002505F08DFBD9F80000009543463246D2
:10052000214605F085FB012004B0BDE8F087C378C3
:10053000064603AD1BB9DFF87080174FB3E71823E9
:10054000174ADFF86480144F0421284622F028F867
:1005500003212846D8F800A016F0BCFB0221114860
:1005600016F0B8FB3868837883B1037873B15346CB
:1005700003222946CDF8009005F05AFB0022386886
:10058000084900925346022205F052FB0023F37003
:1005900089E70123A1E700BFB8EE002003B57EA5DF
:1005A00074810200389602006CEE002010B50A2219
:1005B0009CB0044600210F4823F02CFE00EB800085
:1005C0004000013080B220F009FD20F0B5F80A4B60
:1005D000002220F02FFA094ACDE9000103A8642186
:1005E00021F0DEFF03A920460122FFF74FFF1CB0D8
:1005F00010BD00BF50810200000024407C81020039
:1006000010B5E8B0104B03921B68029104461846DF
:1006100020F0E4FC20F090F809A3D3E9002320F0B7
:10062000DFF80A4ACDE9000104A84FF4C87121F0AF
:10063000B7FF04A920460022FFF728FF68B010BDCD
:100640007B14AE47E17A643F68EE00208C810200A3
:100650002DE9F04F0622D3B00C4606460846B249B3
:1006600022F09CFA002800F0A1800722AF49204622
:1006700022F094FA68B9E379202B04F1070403D13E
:1006800014F8013F202BFBD00122A9493046FFF787
:10069000FDFEA84D2146286802F06AFD10B153B056
:1006A000BDE8F08FA44F214638680DF0D5FD002835
:1006B000F5D1DFF8DC822146D8F800000EF0FEFA12
:1006C0000028ECD1DFF8CC922146D9F8000006F0E2
:1006D0005BFD0028E3D1DFF8C0A22146DAF8000074
:1006E0000EF0F4FC0028DAD1DFF8B0B22146DBF8D6
:1006F00000000AF027F90028D1D1904B2146186854
:100700000AF08AFA0028CAD18D4B2146186809F0F0
:10071000EBFD0028C3D18B4B2146186809F01CFB68
:100720000028BCD1884B2146186808F025FD002818
:10073000B5D1864B214618680CF036FE0028AED1A4
:10074000834B2146186803F011F90028A7D1814B8B
:100750002146186809F0B0F8019000289FD10422C2
:100760007D49204622F01AFA019B78B362783D2A2F
:1007700000F0B88006227949204622F00FFA05469B
:10078000002840F09D80201D3D2121F057FF0028CA
:1007900000F09480294601300A2223F03BFD00300E
:1007A00018BF01200023B070737078E701226C49F4
:1007B0003046FFF76BFEA379202B04F106047FF48B
:1007C00068AF14F8013F202BFBD062E7D8F8003067
:1007D000644A0C3302A84FF4A07121F0E1FE02A993
:1007E00001223046FFF752FE96F900305E4A02A819
:1007F0004FF4A07121F0D4FE02A901223046FFF788
:1008000045FE02A84D22594921F070FB02A90122A0
:100810003046FFF73BFE564B564A02A84FF4A071F4
:1008200021F0BEFE02A901223046FFF72FFEDFF8BD
:1008300070E1BEE80F0002AC0FC4BEE80F000FC4A9
:10084000DEF8003024F8023B1B0C02A901222370C1
:100850003046FFF71BFE3D4B18680BF001FF3A4B8B
:10086000186807F08FFE444B186803F05DF928689C
:1008700002F05EFAD9F8000006F05CFC38680DF072
:10088000BDFCD8F800000EF0ADF9DAF800000EF06B
:1008900003FCDBF800000AF01BF8284B18680AF08C
:1008A0009FF9274B186809F0E7FC264B186809F0F8
:1008B00031FA274B186802F053FEF0E601206EE78C
:1008C00004222E49204622F069F908B307222C4958
:1008D000204622F063F978B1224630462949FFF7D5
:1008E0008FFEDCE62278692A18D11946A01C0A225C
:1008F00023F090FC3070D2E602A81D4B224A7821EA
:1009000021F04EFE02A930460122FFF7BFFDC6E6E8
:10091000194B211D186803F0DFFDC0E62246304662
:100920001A49FFF76DFEBAE69C810200C4810200FD
:10093000CC81020088EE00208CEE002098EE002092
:100940009CEE0020A0EE002078EE002080EE00203B
:10095000A4EE00207CEE0020EC8102004083020027
:10096000A4810200F481020024820200908202002D
:1009700040810200E0820200B8EE002048830200BD
:1009800050830200688302005C8302001C83020023
:1009900090EE002084EE0020BCEE002094EE0020BB
:1009A000F882020070B5D0F8CC3084B004469BB910
:1009B0003E4A1F291268C0F8D02027D894F9003089
:1009C000012B1AD00A2932D00D2930D0D4F8CC30DE
:1009D000C62B20DC04B070BD1F29EFD9C218C62B6E
:1009E000117114DD0023012280F8D420C0F8CC302E
:1009F000037194F90030012BE4D16378002BE1D12D
:100A00000846039116F02EFA0399DBE701710133D2
:100A1000C4F8CC30D2E7234400251D7101222449BB
:100A20002046FFF733FDC4F8CC5004B070BD94F8F5
:100A3000D43053BBD4F8CC20002A1DDD1D4B1868E0
:100A400003788BB183787BB1A3180A211971251D16
:100A50004FF0FF36D4F8D03000960132294605F029
:100A6000E7F8D4F8CC2000E0251D224400232946D5
:100A700013712046FFF7ECFD94F90050012D0DD0C5
:100A80000023C4F8CC3004B070BD002384F8D43007
:100A9000012209492046FFF7F9FCF1E72A460749F8
:100AA0002046FFF7F3FCE570EAE700BF6CEE00209C
:100AB00098830200B8EE0020748302009083020045
:100AC000F8B5074616F082F8142804DC002806461C
:100AD00010D001DCF8BD1426002416F03BF8051EEA
:100AE00004F10104A5F10A0306DB752B05D9B44214
:100AF000F3DBF8BD7B78BBB1F8BD7B7843B10A2D41
:100B000001D00D2D04D1012215493846FFF7BEFC56
:100B1000144A00231268C7F8D820E9B27B7038461F
:100B2000BDE8F840FFF73EBFBB78002BE4D00D4A8C
:100B3000D7F8D81013685B1AB3F57A6F0ED997F906
:100B400000301268C7F8D82013B101237B70F8BDBC
:100B5000012205493846FFF799FCF6E7F8BD00BFCA
:100B6000F48302006CEE0020B4830200F0B5151E81
:100B700085B00C463BDD48190A46002312F8011BDC
:100B800082420B44FAD11B4883FB00011944DA1757
:100B9000C2EBA11202EB420202EB42129B1A01339A
:100BA000154A164E042103A821F0FAFC144B032128
:100BB00003A81F6816F08EF82946204616F08AF81A
:100BC0003068837883B1037873B1012303A900935C
:100BD00003223B4605F02CF8306800263B462A46A7
:100BE0002146009605F024F8012005B0F0BD012350
:100BF000D6E700BF03B57EA574810200B8EE0020E1
:100C00006CEE00200FF024B90449C1604FF07E5211
:100C10000021017082604260704700BF0AD7233B09
:100C20002DE9F041416004460F46826000211846DC
:100C300090461E4620F0D2FB78B90346002523706B
:100C40003046294620F0CAFB50B94FF07E5325614B
:100C50006561A361E361BDE8F0814FF00103EDE759
:100C60004146404620F00AF9E6683146804620F0C9
:100C700005F941460546A061304620F0FDF82946B9
:100C800020F0B8FA3946E061384620F0F7F801461E
:100C90000746304620F0F2F8294620F0ABFA3946F4
:100CA0002061304620F0E8F8294620F0A3FA606180
:100CB000BDE8F081F8B503783BB94FF07E520023D0
:100CC0008261C26103614361F8BD816804460846E0
:100CD00020F0D4F8E6683146074620F0CFF83946D0
:100CE0000546A061304620F0C7F8294620F082FA78
:100CF0006168E061084620F0C1F8014607463046C9
:100D000020F0BCF8294620F075FA394620613046BB
:100D100020F0B2F8294620F06DFA6061F8BD00BFFE
:100D20000023036243628362C3627047037870B535
:100D3000044613B90020A06270BDC069E16A256A4B
:100D400000F1004020F0A2F921690646284620F073
:100D50009DF90146304620F091F8616A06466069C7
:100D600020F094F90146304620F088F86562E06290
:100D7000A06270BD2DE9F0430E4683B0044601A980
:100D80003046002223F046FA019D031C18BF0123C0
:100D9000AE4223700ED303BB4FF07E520023A261FC
:100DA000E26123616361AE4234BF2846002003B094
:100DB000BDE8F083284601A923F06EF92F46019D76
:100DC0006060AF422E4632D2284601A923F064F972
:100DD0002378019DA060002BDED0A168084620F09A
:100DE0004DF8D4F80C804146814620F047F849463A
:100DF0000746A061404620F03FF8394620F0FAF956
:100E00006168E061084620F039F8014681464046B5
:100E100020F034F8394620F0EDF94946206140468B
:100E200020F02AF8394620F0E5F96061BBE73E463C
:100E30002378B0E7F0B5044685B080682778164679
:100E40000D461FF079FCCDE9020160681FF074FCCB
:100E50003B46CDE90001054A3146284621F0A0FB7A
:100E6000284605B0BDE8F04021F02ABE0884020003
:100E700038B5037803B938BD054D41680446286884
:100E800002F0A4FB2868A168BDE8384002F09EBBD0
:100E9000A4EE0020F8B5037804463BB94FF07E522B
:100EA0000023A261E26123616361F8BD194D2868E6
:100EB00002F0C2FB6060286802F0BEFB2378A060ED
:100EC000002BEBD001461FF0D9FFE66831460746FC
:100ED0001FF0D4FF39460546A06130461FF0CCFF15
:100EE000294620F087F96168E06108461FF0C6FFD7
:100EF0000146074630461FF0C1FF294620F07AF927
:100F00003946206130461FF0B7FF294620F072F9BC
:100F10006061F8BDA4EE002030B4074A074C82603F
:100F20004FF07E55002201214560C460417002707F
:100F3000027430BC704700BF0AD7233B0000C84290
:100F400038B50478C26041603CB94FF07E5200234E
:100F5000C26102624361836138BD0446084615469A
:100F60001FF08CFF0A4B23620146E061A06820F06D
:100F700041F908496061A061284620F025FA4FF048
:100F8000010308B1237438BD0346237438BD00BF84
:100F9000000080BF0000C6422DE9F04383B002AFDD
:100FA0000E4647F8041D044639463046002223F019
:100FB00031F9019D003018BF0120AE42207010D3DE
:100FC0002378002B32D14FF07E520023E26122625F
:100FD0006361A361AE4234BF2846002003B0BDE880
:100FE000F0832846394623F057F8A846019D6060F3
:100FF000A845A94641D22846394623F04DF8204954
:10100000E060054620F0E0F948BB019D2E46A94569
:1010100031D228463946002223F0FCF82378019D7E
:10102000003018BF01206070002BCCD061680846EA
:101030001FF024FF134B23620146E061A06820F0FB
:10104000D9F811496061A061E06820F0BDF94FF066
:10105000010308B12374BDE703462374BAE72846A9
:10106000002120F0C5F9019D18B101232E462374FB
:10107000CDE72E46CBE74E46A2E74646A0E700BFA7
:1010800000247449000080BF0000C64270B5037C94
:1010900086B004460D461646CBB1C0681FF04CFB27
:1010A00002460B46617860680491CDE902231FF087
:1010B00043FB23780A4ACDE900013146284621F056
:1010C0006FFA284606B0BDE8704021F0F9BC02A3D3
:1010D000D3E90023E6E700BF0000000080842E4132
:1010E0001484020003783BB94FF07E520023C261A2
:1010F0000262436183617047416810B50446084647
:101100001FF0BCFE0A4B23620146E061A06820F09C
:1011100071F808496061A061E06820F055F94FF06E
:10112000010308B1237410BD0346237410BD00BF32
:10113000000080BF0000C642002343628362C36296
:1011400003637047F8B503783BB30446006A216B2C
:10115000676A00F100401FF099FF61690546384653
:101160001FF094FF014628461FF088FEA16A05463D
:10117000A0691FF08BFF014628461FF07FFE237CED
:10118000E062054633B1E668314620F03BF938B1FC
:10119000E66235462563A762F8BD0023C362F8BD49
:1011A00006F100463146284620F00EF90028EFD11E
:1011B000F0E700BF38B5037803B938BD054D416885
:1011C0000446286802F002FA2868E168BDE8384061
:1011D00002F0FCB9A4EE002038B5037804463BB910
:1011E0004FF07E520023E26122626361A36138BD49
:1011F000124D286802F020FA6060286802F01CFA9C
:101200002378E0600546002BEAD0616808461FF0AD
:1012100035FE0B4B23620146E061A0681FF0EAFF38
:1012200008496061A061284620F0CEF84FF0010324
:1012300008B1237438BD0346237438BDA4EE0020E2
:10124000000080BF0000C642F8B50446214D656726
:1012500001254FF07E56204B84F869500027002569
:101260001E481F4AE0612262676163642367C4F815
:10127000A830C4F8D830C4F8083184F8385084F85D
:10128000685084F8785084F89C5084F8CC5084F8E6
:10129000FC50257025762664E663E666C4F8A460F3
:1012A000C4F8A060C4F8D460C4F8D060C4F8046185
:1012B000C4F80061E660A01C082221F0BFFC257480
:1012C00066616562A562E562256384F83450204654
:1012D000F8BD00BF0000C8420AD7233B0024744970
:1012E000002474C900238365C36503664366C0F8A0
:1012F0008C30C0F89030C0F89430C0F89830C0F806
:10130000BC30C0F8C030C0F8C430C0F8C830C0F835
:10131000EC30C0F8F030C0F8F430C0F8F830C0F865
:101320001C31C0F82031C0F82431C0F82831704792
:101330002DE9F04784B00F46019106460C4600E0C7
:10134000019425460134287820F0B4FA0028F7D11A
:1013500006F10208404621F0B3FB4146024604462E
:10136000384621F01BFCB0F100080CBF0127002714
:1013700003D0384604B0BDE8F08725440A22284649
:1013800002A9019522F046FF029B019A003018BF86
:10139000012093423070ECD9184602A9019322F043
:1013A0007BFE0299019BF0609942E2D906F1680048
:1013B000FFF7F2FD04460190002800F0DE8042466F
:1013C00003A922F027FF039D031C18BF0123AC4291
:1013D00086F89C30A846C0F0BB80002B40F08C8182
:1013E0004FF07E520023C6F8B420C6F8B820C6F8E5
:1013F000AC30C6F8B030A542A84640F22082019534
:10140000002D00F02B822846002203A922F002FFC3
:10141000039C031C18BF0123A04586F8CC30254649
:10142000C0F08180002B40F00D814FF07E520023F0
:10143000C6F8E420C6F8E820C6F8DC30C6F8E0308C
:101440004445F36A40F2F4810194002B00F0BE8120
:1014500096F8CC304FF00008C6F8D080002B40F052
:101460007B814FF07E53C6F8DC80C6F8E0802546CD
:10147000C6F8E430C6F8E830002D00F0DE81002226
:1014800003A9284622F0C6FE039C031C18BF0123B3
:10149000AC4286F83830A04632D8002B40F00281AA
:1014A0004FF07E52002332657265B364F364AC4240
:1014B0008CBF204600200190002800F0BE81002251
:1014C00002A922F0A7FE019B003018BF0120307650
:1014D00013B10298984252D81A7832B9B24BB34934
:1014E00018680122FEF7D2FF43E718460A220021BE
:1014F00022F090FE003018BF012086F8340038E753
:10150000204603A922F0C8FD039DF063A8452C46A0
:1015100080F0A68103A9284622F0BEFD96F8383057
:10152000039C3064B9E7204603A922F0B5FD039C73
:10153000C6F8D000A542A04680F08881204603A9C5
:1015400022F0AAFD96F8CC30039CC6F8D40069E7D7
:10155000284603A922F0A0FD039DC6F8A000A845D7
:101560002C4680F07781284603A922F095FD96F855
:101570009C30039DC6F8A4002FE70346ACE702A900
:1015800022F08AFD02A90446029822F085FD054654
:10159000014620461FF036FF002800F0098104F1C3
:1015A000004325461C46019B3462F561002B93D015
:1015B0000298984290D90A2201A922F02BFE00300D
:1015C00018BF0120307401A9019822F053FD1FF0CB
:1015D000FFFB019D70610022284603A922F01AFE3C
:1015E000039C031C18BF0123A54286F8FC30A046CB
:1015F00013D3002B40F0EC804FF07E520023C6F84E
:101600001421C6F81821C6F80C31C6F81031AC42C6
:101610008CBF2346002301935EE7204603A922F0F6
:101620003BFD039CC6F80001A045254680F00A81D9
:10163000204603A922F030FD96F8FC30039CC6F842
:101640000401D6E7D6F8D41008461FF017FCD6F8E8
:10165000D890494682461FF011FC51460546C6F80F
:10166000E40048461FF008FC29461FF0C3FDD6F8E9
:10167000D010C6F8E80008461FF000FC014682467C
:1016800048461FF0FBFB29461FF0B4FD5146C6F843
:10169000DC0048461FF0F0FB29461FF0ABFDC6F802
:1016A000E000CDE6316C08461FF0E8FBD6F8449028
:1016B000494682461FF0E2FB514680463065484667
:1016C0001FF0DAFB41461FF095FDF16B706508468F
:1016D0001FF0D4FB0146824648461FF0CFFB41462F
:1016E0001FF088FD5146B06448461FF0C5FB4146D7
:1016F0001FF080FDF064DAE6D6F8A41008461FF06B
:10170000BDFBD6F8A890494682461FF0B7FB51466C
:101710008046C6F8B40048461FF0AEFB41461FF0B5
:1017200069FDD6F8A010C6F8B80008461FF0A6FB61
:101730000146824648461FF0A1FB41461FF05AFD74
:101740005146C6F8AC0048461FF096FB41461FF0D4
:1017500051FDC6F8B0004EE6D6F8D41008461FF08A
:101760008DFBD6F8D850294682461FF087FB51469C
:101770008146C6F8E40028461FF07EFB49461FF06C
:1017800039FD4146C6F8E80028461FF077FB494678
:101790001FF030FD4946C6F8DC0028461FF02AFD40
:1017A0002546C6F8E00067E6B4EE00202484020077
:1017B000294620461FF0FEFD00283FF4F4AE4FF00E
:1017C0007E5128461FF058FB0446ECE6254653E6BA
:1017D000D6F8041108461FF051FBD6F80891494687
:1017E00082461FF04BFB51468046C6F8140148461E
:1017F0001FF042FB41461FF0FDFCD6F80011C6F871
:10180000180108461FF03AFB0146824648461FF081
:1018100035FB41461FF0EEFC5146C6F80C01484628
:101820001FF02AFB41461FF0E5FCC6F81001EEE66A
:1018300000240194002B7FF40BAE00234CE6002320
:101840000193FAE7454696F8FC30D2E6A84696F8AA
:10185000CC30E7E5444696F89C30BEE52B463BE6A7
:10186000454696F8383018E62DE9F043054687B02E
:10187000C06817460E461EF05FFF2A780092CDE939
:101880000201AB1C39463046674A20F089FE95F8C4
:101890007830044606EB0008C0EB0709002B00F087
:1018A000BB80686F1EF048FF02460B4695F8691032
:1018B000E86E0491CDE902231EF03EFF95F86830F2
:1018C0005A4ACDE900014946404620F069FE4046AB
:1018D00021F0F6F80444D5F8A40095F89C901EF089
:1018E0002BFFCDE90201D5F8A0001EF025FF06EB85
:1018F00004083A1B4B46CDE90001114640464C4ACC
:1019000020F04EFE404621F0DBF80444D5F8D40028
:1019100095F8CC901EF010FFCDE90201D5F8D0006B
:101920001EF00AFF06EB04083A1B4B46CDE9000106
:10193000114640463E4A20F033FE404621F0C0F8B2
:101940000444286C95F838901EF0F6FECDE90201AB
:10195000E86B1EF0F1FE06EB04083A1B4B46CDE99E
:10196000000111464046324A20F01AFE404621F05E
:10197000A7F80444E86995F818801EF0DDFECDE96B
:101980000201286A1EF0D8FEC4EB070E3219CDE919
:101990000001434671461046254A20F001FE0444EA
:1019A000686995F810801EF0C7FEC4EB070E321967
:1019B0004346CDE90001714610461E4A20F0F0FD75
:1019C0000444D5F8040195F8FC901EF0B5FECDE96D
:1019D0000201D5F800011EF0AFFE06EB04083A1B29
:1019E000CDE900014B4611464046114A20F0D8FD92
:1019F000404621F065F8E96A95F834300E4A0D1C2E
:101A0000044418BF0125391B3019009520F0C8FD8A
:101A1000204407B0BDE8F08301A3D3E9002345E7E4
:101A20000000000080842E416484020014840200BF
:101A300008840200708402007884020010B4019CC3
:101A4000C46241628262036310BC70472DE9F84FA3
:101A5000037C0446002B33D090F8FC30002B00F0C0
:101A60004481436A416918681FF010FB0546D4F8A9
:101A70001801D4F82811C4F81C5100F100401FF0DF
:101A800005FBD4F80C11064628461FF0FFFA014664
:101A900030461FF0F3F9D4F820110646D4F81001AF
:101AA0001FF0F4FA014630461FF0E8F92378C4F835
:101AB0002051C4F82401C4F828013BB9BDE8F88FCF
:101AC0000023C0F824312378002BF7D094F8383065
:101AD000002B40F0DB80636A1D6894F8CC30C4F8BA
:101AE0002C51002B00F0F880E36A002B00F05481A9
:101AF000A76A1968D4F8D0001FF0C8FA39681FF037
:101B0000BDF90546D4F8E800D4F8F810C4F8EC5054
:101B100000F100401FF0BAFAD4F8DC10064628465F
:101B20001FF0B4FA014630461FF0A8F9D4F8F010BF
:101B30000646D4F8E0001FF0A9FA014630461FF02F
:101B40009DF9C4F8F05094F834A0D4F82C51C4F89E
:101B5000F4000646C4F8F800C4F83001BAF1000FEA
:101B600024D0396828461FF087F91EF0E5FDA4A3AC
:101B7000D3E90023804689461FF0C2F8002840F0D0
:101B8000E88040464946A0A3D3E900231FF09AF815
:101B900060B128461EF0D0FD9DA3D3E900231EF0BE
:101BA0006DFC1FF015F90546C4F82C013146284696
:101BB0001FF062F9E1681FF069FA94F89C30C4F8EC
:101BC000340105463BB3D4F8B800D4F8C810C4F8C3
:101BD000BC5000F100401FF059FAD4F8AC10064692
:101BE00028461FF053FA014630461FF047F9D4F853
:101BF000C0100646D4F8B0001FF048FA014630463F
:101C00001FF03CF9C4F8C050C4F8C400C4F8C800C0
:101C1000C4F83401054694F86830002B6DD0637821
:101C2000C4F88C50002B40F08A80D4F88800D4F897
:101C3000981000F100401FF029FAE16F064628468F
:101C40001FF024FA014630461FF018F9D4F890101E
:101C50000646D4F880001FF019FA014630461FF0FE
:101C60000DF994F87830C4F8940006464BB1676FCC
:101C700039461FF0C7FB002800F08480C4F8947038
:101C80003E46C4F89860C4F890505AE0636A606DAC
:101C90001E68616EA66500F100401FF0F7F9A16CA7
:101CA000054630461FF0F2F9014628461FF0E6F8D7
:101CB000E16D0546E06C1FF0E9F9014628461FF08A
:101CC000DDF894F8CC30E665054620666066C4F819
:101CD0002C01002B7FF408AFA76A94F834A03E686B
:101CE000D4F82C51C4F8306138E7436A4169186868
:101CF0001FF0CCF9C4F82401E5E6C4F838512846B1
:101D0000D4F824111FF0BAF8237EC4F83C0105462C
:101D100083B1E66931461FF075FB40BB266A284651
:101D200031461FF051FB226B38B3012316606370FC
:101D3000BDE8F88F226B10606370BDE8F88FD4F8AF
:101D40009460284631461FF099F80546C4F83801DA
:101D5000D5E728461EF0F0FC2DA3D3E900231EF0A2
:101D60008BFB1FF035F80546C4F82C011EE7226BEB
:101D7000012316606370BDE8F88F0023156063705F
:101D8000BDE8F88F07F10047394630461FF01CFBCD
:101D900000287FF473AF74E794F834A0A76ABAF10F
:101DA000000F39D1D4F8F810D7F800B0D4F8F060AB
:101DB000D4F8E830C4F8ECB003F100401FF066F945
:101DC000D4F8DC10804658461FF060F901464046C2
:101DD0001FF054F8D4F8E010804630461FF056F952
:101DE000014640461FF04AF8C4F8F0B00646C4F871
:101DF000F400C4F8F800C4F83001AFE6AFF3008097
:101E0000182D4454FB210940182D4454FB2109C0CE
:101E1000182D4454FB211940D4F8F060D7F800B0D5
:101E2000314658461FF028F81EF086FC28A3D3E957
:101E30000023804689461EF063FFE8B130461EF05D
:101E40007BFC25A3D3E900231EF018FB1EF0C0FF86
:101E5000C4F8F0000646D4F8F8001EF06DFC1EA38E
:101E6000D3E900231EF00AFB1EF0B2FFC4F8F8000D
:101E70000146D7F800B09BE74046494618A3D3E98E
:101E800000231EF01FFF10B9D4F8F81090E7304679
:101E90001EF052FC10A3D3E900231EF0EDFA1EF051
:101EA00097FFC4F8F0000646D4F8F8001EF044FC92
:101EB00009A3D3E900231EF0DFFA1EF089FFC4F85E
:101EC000F8000146D7F800B072E700BFAFF300801A
:101ED000182D4454FB210940182D4454FB2119406E
:101EE000182D4454FB2109C090F86830017870B572
:101EF00004460BB141F0020194F89C300BB141F063
:101F0000040194F8CC300BB141F0080194F838305A
:101F10000BB141F01001237E0BB141F02001237C75
:101F20000BB141F0400194F8FC300BB141F080015D
:101F300094F834300BB141F48071324D286801F0CF
:101F400069FB237863B9237E03B970BD216A2868D1
:101F500001F03CFBE1692868BDE8704001F036BB48
:101F6000E168286801F032FB94F86830002B3FD11B
:101F700094F89C30002B30D194F8CC3013BB94F8FB
:101F80003830B3B9237C002BDDD0616928681D4E41
:101F900001F01CFB94F8FC30002BD4D0D4F80011D5
:101FA000306801F013FB3068D4F8041101F00EFB27
:101FB000C9E7E16B286801F009FB216C286801F092
:101FC00005FBDFE7D4F8D010286801F0FFFAD4F859
:101FD000D410286801F0FAFAD1E7D4F8A0102868E4
:101FE00001F0F4FAD4F8A410286801F0EFFAC3E77E
:101FF000E16E286801F0EAFA616F286801F0E6FAFC
:10200000B6E700BFA4EE00202DE9F041B14D044633
:10201000286801F025FBC0F3800200F00106C0F340
:102020004001C0F3C00384F89C20C0F30022C0F339
:102030000017267084F86810C0F38016C0F3C01132
:1020400084F8CC3084F83420C0F34013C20784F8FD
:102050003870267484F8FC1023760AD43BB12868C3
:1020600001F0EAFA2062286801F0E6FAE061BDE8D2
:10207000F081286801F0E0FA94F86830E060002B05
:1020800038D14FF07E520023C4F88420C4F8882051
:10209000E367C4F8803094F89C30002B40F0DB807C
:1020A0004FF07E520023C4F8B420C4F8B820C4F81E
:1020B000AC30C4F8B03094F8CC30002B40F08E80B7
:1020C0004FF07E520023C4F8E420C4F8E820C4F89E
:1020D000DC30C4F8E03094F83830002B4AD14FF0AF
:1020E0007E52002322656265A364E364237C53BBB4
:1020F000237EB3E7286801F09FFAE066286801F0C4
:102100009BFA94F8683060670646002BB9D0E16E00
:1021100008461EF0B3FE704BC4F888300146C4F880
:102120008400206F1FF066F86C49E067C4F88000F7
:1021300030461FF049F94FF00103002800F0C88035
:1021400084F87830A7E72868624E01F075FA94F8B1
:10215000FC306061002B40F0C3804FF07E510022C4
:10216000237EC4F81411C4F81811C4F80C21C4F863
:10217000102173E7286801F05FFAE063286801F036
:102180005BFA94F838302064002BA8D001461EF08A
:1021900075FE676C394680461EF070FE4146064665
:1021A000206538461EF068FE31461FF023F8E16BCB
:1021B000606508461EF062FE0146804638461EF005
:1021C0005DFE31461FF016F84146A06438461EF009
:1021D00053FE31461FF00EF8E06487E7286801F0EF
:1021E0002BFAC4F8D000286801F026FA94F8CC3015
:1021F000C4F8D400002B3FF463AF01461EF03EFE4E
:10220000D4F8D870394680461EF038FE414606465E
:10221000C4F8E40038461EF02FFE31461EF0EAFFF7
:10222000D4F8D010C4F8E80008461EF027FE014696
:10223000804638461EF022FE31461EF0DBFF414646
:10224000C4F8DC0038461EF017FE31461EF0D2FFFF
:10225000C4F8E0003FE7286801F0EEF9C4F8A000F8
:10226000286801F0E9F994F89C30C4F8A400002B28
:102270003FF416AF01461EF001FED4F8A8703946AF
:1022800080461EF0FBFD41460646C4F8B4003846C1
:102290001EF0F2FD31461EF0ADFFD4F8A010C4F8D8
:1022A000B80008461EF0EAFD0146804638461EF09A
:1022B000E5FD31461EF09EFF4146C4F8AC003846AD
:1022C0001EF0DAFD31461EF095FFC4F8B000F2E6CC
:1022D000034635E7A4EE0020000080BF0000C642A0
:1022E000306801F0A9F9C4F80001306801F0A4F9E0
:1022F00094F8FC30C4F80401002B3FF42EAF0146E3
:102300001EF0BCFDD4F80871394680461EF0B6FDBB
:1023100041460646C4F8140138461EF0ADFD31466C
:102320001EF068FFD4F80011C4F8180108461EF02A
:10233000A5FD0146804638461EF0A0FD31461EF040
:1023400059FF4146C4F80C0138461EF095FD314650
:102350001EF050FF237EC4F810017FE638B5841CC0
:1023600020460D4620F0ACFB29460246204620F0D0
:1023700015FCB0FA80F0400938BD00BF70B50546C5
:10238000436AD5F830611B68D0F82C0188600C4690
:102390004B6031461EF070FDE9681EF077FE2B6B36
:1023A000D5F89420D5F834112161E06062611A6893
:1023B000AB6AA2611A68D5F8243163622662E261D1
:1023C00070BD00BFF0B5541CE1B04AD002EB8202F0
:1023D000D5004C190E46606A1EF0AEF9CDE9120127
:1023E000206A1EF0A9F9CDE91001E0691EF0A4F9F8
:1023F000CDE90E01A0691EF09FF9CDE90C016069DD
:102400001EF09AF9CDE90A0120691EF095F9CDE98F
:102410000801E0681EF090F9CDE90601A0681EF001
:102420008BF9CDE9040160681EF086F9CDE902015F
:1024300070591EF0D7FD1EF07FF9424B00221EF0AE
:10244000F9FA414ACDE9000115A84FF4967120F040
:10245000A7F83E4B15A918680122FEF717F861B0DE
:10246000F0BD3A4C3A4A05461F4615A8AB1C4FF43E
:10247000967120F095F815A901222068FEF706F85C
:1024800066981EF047F900222E4B1EF0D3FA3B4609
:10249000CDE900012F4A15A84FF4967120F080F87D
:1024A00015A920680122FDF7F1FFEB6A2A4A0033E3
:1024B00018BF012315A84FF4967120F071F815A9E3
:1024C00020680122FDF7E2FF206824490122FDF780
:1024D000DDFF206822490122FDF7D8FF206821494D
:1024E0000122FDF7D3FF20681F490122FDF7CEFF2F
:1024F00020681E490122FDF7C9FF20681C490122FE
:10250000FDF7C4FF20681B490122FDF7BFFF2068CB
:1025100019490122FDF7BAFF206818490122FDF789
:10252000B5FF206816490122FDF7B0FF2068154964
:102530000122FDF7ABFF206813490122FDF7A6FF3A
:1025400061B0F0BD0000594074860200B4EE002076
:102550008084020094840200C4840200F484020097
:10256000088502001C8502004C8502006C85020073
:1025700088850200BC850200DC8502000886020016
:1025800020860200488602006C860200FFFFFFFFE3
:1025900038B5044600235E4A5E495F48A364E3649D
:1025A00023656365A365E36523666366A366626767
:1025B000E267C4F88420E0662167A167C4F8801050
:1025C0004FF4A07015F0F4FF54490546FEF73CFEA9
:1025D00025604FF4A07015F0EBFF51490546FEF75A
:1025E00033FE65604FF4A07015F0E2FF4D490546DB
:1025F000FEF72AFEA5604FF4A07015F0D9FF4A49F6
:102600000546FEF721FEE5604FF4A07015F0D0FFFF
:1026100046490546FEF718FE25614FF4A07015F0F7
:10262000C7FF43490546FEF70FFE65614FF4A070F2
:1026300015F0BEFF3F490546FEF706FEA5614FF4C3
:10264000A07015F0B5FF3C490546FEF7FDFDE561BC
:102650004FF4A07015F0ACFF38490546FEF7F4FDC5
:1026600025624FF4A07015F0A3FF35490546FEF72B
:10267000EBFD65624FF4A07015F09AFF31490546F5
:10268000FEF7E2FDA5624FF4A07015F091FF2E4910
:102690000546FEF7D9FDE5624FF4A07015F088FFFE
:1026A0002A490546FEF7D0FD25634FF4A07015F0CA
:1026B0007FFF27490546FEF7C7FD65634FF4A0700D
:1026C00015F076FF23490546FEF7BEFDA5634FF4DE
:1026D000A07015F06DFF20490546FEF7B5FDE563D6
:1026E0004FF4A07015F064FF1C490546FEF7ACFDE1
:1026F00025644FF4A07015F05BFF19490546FEF7FD
:10270000A3FD0023656484F89030204638BD00BFE7
:102710000000A0400000A0C000007A44B88702007A
:10272000C0870200C8870200D0870200D887020055
:10273000E0870200E8870200EC870200F0870200D1
:10274000F4870200F8870200FC870200008802007C
:1027500004880200088802000C8802001088020029
:102760001488020038B5044600682D4DFFF7BCFB05
:102770006068FFF7B9FBA068FFF7B6FBE068FFF7FA
:10278000B3FB2069FFF7B0FB6069FFF7ADFBA06901
:10279000FFF7AAFBE069FFF7A7FB206AFFF7A4FB9E
:1027A000606AFFF7A1FBA06AFFF79EFBE06AFFF7F4
:1027B0009BFB206BFFF798FB606BFFF795FBA06B13
:1027C000FFF792FBE06BFFF78FFB206CFFF78CFBB2
:1027D000606CFFF789FBA16E286800F0F7FEE16EE0
:1027E000286800F0F3FE216F286800F0EFFE616FAB
:1027F000286800F0EBFEA16F286800F0E7FEE16FAB
:10280000286800F0E3FED4F88010286800F0DEFEAF
:10281000D4F884102868BDE8384000F0D7BE00BF67
:10282000A4EE002038B504460068304DFFF7ECFBFD
:102830006068FFF7E9FBA068FFF7E6FBE068FFF7D9
:10284000E3FB2069FFF7E0FB6069FFF7DDFBA069B0
:10285000FFF7DAFBE069FFF7D7FB206AFFF7D4FB4D
:10286000606AFFF7D1FBA06AFFF7CEFBE06AFFF7D3
:10287000CBFB206BFFF7C8FB606BFFF7C5FBA06BC2
:10288000FFF7C2FBE06BFFF7BFFB206CFFF7BCFB61
:10289000606CFFF7B9FB286800F0CEFEA0662868E0
:1028A00000F0CAFEE066286800F0C6FE20672868CF
:1028B00000F0C2FE6067286800F0BEFEA0672868CE
:1028C00000F0BAFEE067286800F0B6FEC4F88000A9
:1028D000286800F0B1FE064BC4F884000122186895
:1028E0000449BDE83840FDF7D1BD00BFA4EE00208B
:1028F000B4EE0020188802002DE9F04F034685B0A1
:10290000634D644FDFF890913A68044653F8500BDA
:1029100003932B68002604F14C0A51461433C83245
:102920000096FFF78BF83A682B6860680399009669
:102930002833CC32FFF782F83A682B68A0680096FB
:1029400004F154013C33D032FFF778F8D9F8002075
:102950002B68E06804F15808111D009108324146C7
:102960005033FFF76BF83A68206904F15C0B02F111
:10297000C8015346009102F5FE725946FFF75EF812
:102980003B68606904F1600A03F1CC020092039B8A
:10299000514604F14802FFF751F83A682B68A069E4
:1029A00000965946243302F5FE72FFF747F83A685D
:1029B0002B68E06900965946343302F5FE72FFF742
:1029C0003DF83A682B68206A00965946443302F570
:1029D000FE72FFF733F83A682B68606A009651463A
:1029E000183302F50072FFF729F83A682B68A06ADD
:1029F00000965146383302F50072FFF71FF83A6827
:102A00002B68E06A00965146483302F50072FFF7E2
:102A100015F83A682B68206B009604F1640A514659
:102A20001C33D032FFF70AF83A682B68606B0096C7
:102A300051462C33D032FFF701F83A682B68A06B6F
:102A400000965146D0324C33FEF7F8FF2B68D9F888
:102A50000020E06B0096414620330832FEF7EEFF7F
:102A60002B68D9F80020206C00964146303308329C
:102A7000FEF7E4FF2B68D9F80020606C0096414611
:102A800040330832FEF7DAFF05B0BDE8F08F00BF33
:102A900084EE002080EE0020A0EE00202DE9F0431F
:102AA000B1B00C460891064600E008942546013472
:102AB00028781EF0FFFE0028F7D1202128461FF0BD
:102AC000BDFD0990002800F08180284609A921F069
:102AD000E3FA09A98046099821F0DEFA09A9074618
:102AE000099821F0D9FA08A90546099821F0D4FAE5
:102AF000089A099B9A4204465ED9464B1B6893F894
:102B000031304BB9444B454918680122FDF7BEFCF2
:102B1000012031B0BDE8F083D6F8689040464946C0
:102B20001EF052FC00283CD0C6F85890D6F87080B1
:102B3000384641461EF048FC48B3C6F85C80B76F83
:102B4000284639461EF040FCC0B13766D6F88050A2
:102B5000204629461EF038FC58B9D6F88450204645
:102B600029461EF04FFC20B90120746631B0BDE843
:102B7000F0830120756631B0BDE8F083F76F284619
:102B800039461EF03FFC0028DFD13566DEE7D6F877
:102B90007480384641461EF035FC0028CDD1F765DB
:102BA000CDE7D6F86C90404649461EF02BFC002835
:102BB000BAD1C6F85880B9E7174B194918680122ED
:102BC000FDF764FC012031B0BDE8F083706E1DF0AC
:102BD000B3FDCDE90601306E1DF0AEFDCDE9040177
:102BE000F06D1DF0A9FDCDE90201B06D1DF0A4FD51
:102BF0000C4ACDE900010AA896211FF0D1FC064B32
:102C00000AA918680122FDF741FC012031B0BDE896
:102C1000F08300BF90EE0020B4EE00204088020058
:102C2000548802008C88020070B5B8B00C46109130
:102C3000064600E010942546013428781EF03AFE3E
:102C40000028F7D1202128461FF0F8FC119050B33E
:102C500011A9284621F020FA11A9B066119821F097
:102C60001BFA11A9F066119821F016FA00F1004341
:102C70007067336711A9119821F00EFA00F1004333
:102C8000F067B36710A9119821F006FA109A119B0A
:102C9000C6F884009A4200F10040C6F880003AD09D
:102CA000012038B070BDD6F884001DF045FDCDE997
:102CB0000E01D6F880001DF03FFDCDE90C01F06F4C
:102CC0001DF03AFDCDE90A01B06F1DF035FDCDE9EB
:102CD0000801706F1DF030FDCDE90601306F1DF069
:102CE0002BFDCDE90401F06E1DF026FDCDE90201BA
:102CF000B06E1DF021FD0B4ACDE9000112A896210E
:102D00001FF04EFC084B12A918680122FDF7BEFB0C
:102D1000012038B070BD044B044918680122FDF74A
:102D2000B5FBBDE7DC880200B4EE0020A0880200FD
:102D300010B51A4C1A4920680122FDF7A7FB20683C
:102D400018490122FDF7A2FB206817490122FDF76F
:102D50009DFB206815490122FDF798FB2068144966
:102D60000122FDF793FB206812490122FDF78EFB3B
:102D7000206811490122FDF789FB20680F490122D3
:102D8000FDF784FB20680E490122FDF77FFB2068D8
:102D90000C490122BDE81040FDF778BBB4EE0020DD
:102DA0000C890200248902005089020098890200DF
:102DB000E0890200188A0200608A0200A88A0200E4
:102DC000D48A0200288B020038B5044600680D46FC
:102DD000FEF7AEFA40B13C4B3C4918680122012491
:102DE000FDF754FB204638BD29466068FEF7A0FA7F
:102DF0000028F0D12946A068FEF79AFA0028EAD107
:102E00002946E068FEF794FA0028E4D129462069B3
:102E1000FEF78EFA0028DED129466069FEF788FAAF
:102E20000028D8D12946A069FEF782FA0028D2D11D
:102E30002946E069FEF77CFA0028CCD12946206AB1
:102E4000FEF776FA0028C6D12946606AFEF770FAC6
:102E50000028C0D12946A06AFEF76AFA0028BAD134
:102E60002946E06AFEF764FA0028B4D12946206BAF
:102E7000FEF75EFA0028AED12946606BFEF758FADD
:102E80000028A8D12946A06BFEF752FA0028A2D14B
:102E90002946E06BFEF74CFA00289CD12946206CAD
:102EA000FEF746FA002896D1606C2946FEF740FAF4
:102EB000044600288FD1044B054918680122FDF70C
:102EC000E5FA204638BD00BFB4EE0020608B02005A
:102ED000508B020030B5884B04460D4693E807003E
:102EE000C5B06B4603C300211A700DF1090040F212
:102EF00005121FF0F9F829462068FFF72FFAA8B14C
:102F000020684FF4837202A9FEF7AEFC0830C0F5CA
:102F100087727A4968441FF091FE794B69461868B8
:102F20000122FDF7B3FA012045B030BD29466068A3
:102F3000FFF714FA38B160684FF4837202A9FEF704
:102F400093FC0830E3E72946A068FFF707FA60B969
:102F50002946E068FFF702FA78B1E0684FF483721F
:102F600002A9FEF781FC0830D1E7A0684FF4837214
:102F700002A9FEF779FC0830C9E729462069FFF766
:102F8000EDF960B929466069FFF7E8F978B1606941
:102F90004FF4837202A9FEF767FC0830B7E7206997
:102FA0004FF4837202A9FEF75FFC0830AFE72946B1
:102FB000A069FFF7D3F938B1A0694FF4837202A971
:102FC000FEF752FC0830A2E72946E069FFF7C6F990
:102FD00038B1E0694FF4837202A9FEF745FC08306E
:102FE00095E72946206AFFF7B9F938B1206A4FF40E
:102FF000837202A9FEF738FC083088E72946606A28
:10300000FFF7ACF938B1606A4FF4837202A9FEF79A
:103010002BFC08307BE72946A06AFFF79FF938B1FF
:10302000A06A4FF4837202A9FEF71EFC08306EE717
:103030002946E06AFFF792F938B1E06A4FF48372EB
:1030400002A9FEF711FC083061E72946206BFFF763
:1030500085F938B1206B4FF4837202A9FEF704FCA6
:10306000083054E72946606BFFF778F938B1606B98
:103070004FF4837202A9FEF7F7FB083047E72946B1
:10308000A06BFFF76BF938B1A06B4FF4837202A904
:10309000FEF7EAFB08303AE72946E06BFFF75EF9F6
:1030A00038B1E06B4FF4837202A9FEF7DDFB083004
:1030B0002DE72946206CFFF751F938B1206C4FF409
:1030C000837202A9FEF7D0FB083020E72946606C26
:1030D000FFF744F9054638B1606C4FF4837202A9DA
:1030E000FEF7C2FB083012E7054B064918680122BB
:1030F000FDF7CCF9284617E7A8860200D098020011
:10310000B4EE00206C8B0200F8B507460D462C4645
:10311000013520781EF0CEFB0028F8D12021204672
:103120001FF08CFAD0B1451E15F8016F30461EF025
:10313000C1FB0028F8D1202E10D921463846FFF7D0
:1031400043FE044644B9084B084918680122FDF7BC
:103150009DF93846FFF7ECFD2046F8BD214638467C
:10316000FFF7B8FE0446EDE7B4EE0020848B0200C2
:10317000F8B504220C460746084626491FF00EFD06
:1031800098B10322244920461FF008FD80B3052290
:10319000224920461FF002FD08B10020F8BD611D44
:1031A0003846FFF741FD0120F8BD043425460134BF
:1031B00028781EF07FFB0028F8D1202128461FF038
:1031C0003DFA80B1441E14F8016F30461EF072FBC8
:1031D0000028F8D1202E06D929463846FFF7F4FDFD
:1031E00060B10120F8BD29463846FFF773FEF7E7C6
:1031F000E11C3846FFF752FC0120F8BD084B094995
:1032000018680122FDF742F93846FFF791FD0120C9
:10321000F8BD00BF9C8B0200A48B0200AC8B0200A7
:10322000B4EE0020848B020010B504460068FEF75F
:1032300059F86068FEF756F8A068FEF753F8E068A2
:10324000FEF750F82069FEF74DF86069FEF74AF87E
:10325000A069FEF747F8E069FEF744F8206AFEF738
:1032600041F8606AFEF73EF8A06AFEF73BF8E06AB4
:10327000FEF738F8206BFEF735F8606BFEF732F892
:10328000A06BFEF72FF8E06BFEF72CF8206CFEF732
:1032900029F8606CFEF726F80023E3642365636574
:1032A000A365E3652366636610BD00BFF8B590F8BB
:1032B0009030002B00F0AD800446C0680378002BEE
:1032C00040F0A8807C4D20692B6800225A605A6427
:1032D0009A64DA641A650378002B40F0A480002316
:1032E000E3642B68D8681DF027FA71A3D3E90023A3
:1032F0001DF076FA714B1B680646D3F800020F46A4
:103300001DF01AFA02460B46304639461DF0B6F853
:103310001DF05EFD6369A0641A78002A40F0C38046
:10332000002323652068636E027803F10043636520
:10333000002A40F0B4802B6800229A605A619A619A
:10334000DA611A6260680378002B40F0A4802B6871
:103350000022DA605A629A62DA621A63A06803781D
:10336000002B40F094802B6800221A615A639A6304
:10337000DA631A64A0690378002B40F08480E06966
:103380000378002B7BD1206A0378002B73D1606A0D
:103390000378002B6BD1A06A0378002B63D1E06A1D
:1033A0000378002B5BD1206B0378002B53D1606B2B
:1033B0000378002B4BD1A06B0378002B43D1E06B3B
:1033C0000378002B3BD1206C0378002B33D1606C49
:1033D0000378002B2BD12C683949656828461DF0ED
:1033E000F3FFB0B1284636491DF004FF01460546FB
:1033F000A0681DF04BFE2378A060032B09D029465E
:10340000E0681DF043FE2946E06020691DF03EFEA5
:103410002061F8BD0021FEF719FB2069264D0378D5
:10342000002B3FF45CAF0021FEF710FB59E70021B1
:10343000FEF70CFBCFE70021FEF708FBC7E70021F2
:10344000FEF704FBBFE70021FEF700FBB7E7002112
:10345000FEF7FCFAAFE70021FEF7F8FAA7E7002134
:10346000FEF7F4FA9FE70021FEF7F0FA97E7002154
:10347000FEF7ECFA8FE70021FEF7E8FA87E7002174
:10348000FEF7E4FA7FE70021FEF7E0FA77E7002194
:10349000FEF7DCFA6EE70021FEF7D8FA5EE70021BE
:1034A000FEF7D4FA4EE718460021FEF7CFFA39E7C7
:1034B0004260E5D022DBA93F84EE002080EE0020B0
:1034C000000048432DE9F041876E04463846164611
:1034D0001D4688461DF096FF30B9E76E40463946D6
:1034E0001DF090FF002833D0A765276F314638467E
:1034F0001DF088FF28B9676F304639461DF082FFFE
:1035000020B3E765A66F294630461DF07BFF28B93A
:10351000E66F284631461DF075FFA8B12666D4F83F
:103520008050069928461DF06DFF50B9D4F884509C
:10353000069829461DF066FF18B9069B6366BDE82C
:10354000F0816566BDE8F0812566E8E7E665D9E7C4
:10355000C4F85880C9E700BF0CF07ABC704700BFC0
:1035600070B5164E164D17493068C0B00122FCF7F1
:103570008DFF0FCD01AC0FC40FCD0FC40FCD0FC405
:1035800095E8070003C4104D227001A9306801229C
:10359000FCF77CFF0FCD01AC0FC40FCD0FC40FCDD6
:1035A0000FC42B6824F8023B01A91B0C3068237060
:1035B0000122FCF76BFF40B070BD00BFB4EE0020ED
:1035C000E08B0200B48B02001C8C020038B504466C
:1035D0000D460CF0F3FD0028FBD02068B0F5805FAD
:1035E00003DA29460CF0E2FE20680430206038BD82
:1035F00038B504460D460CF0E1FD0028FBD02068EC
:10360000B0F5805F03DA29460CF0E0FD2068013058
:10361000206038BD38B504460D460CF0CFFD0028BB
:10362000FBD02068B0F5805F03DA29460CF034FE49
:1036300020680230206038BD38B504680546204651
:1036400004340CF0FDFC2C6038BD00BF38B50468B4
:103650000546204601340CF043FC2C6038BD00BF09
:1036600038B504680546204602340CF08FFC2C6007
:1036700038BD00BF2DE9F043494D86230360B5B046
:1036800004462868FCF7F4FE06460CF097FD002877
:10369000FBD02368B3F5805F04DA184631460CF09E
:1036A00085FE23683F4A404E10680433236006F0CD
:1036B0009DF901223D492868FCF7E8FE3C4B18685B
:1036C0000AF05AFC01223B492868FCF7DFFE3A4B1E
:1036D0001868FFF747F8394B18680BF00DF8384BAE
:1036E000186807F015FA30680BF054FC354B186871
:1036F00006F03CFD344B186807F0A8FB334B186804
:1037000004F0A0F9324B186805F002FE3368D4F8D3
:1037100000909B688222002B226020DDA9F18206A6
:103720000CF04CFD0028FBD02068B0F5805F31DB49
:1037300004304FF480510DF108082060254A0091B3
:1037400033464046C8211EF02BFFC4F80090414686
:1037500028680122FCF79AFE35B0BDE8F0830CF032
:103760002DFD0028FBD02068B0F5805F02DA002133
:103770000CF01CFE184F0FCF0DF1080846460FC67F
:103780000FCF0FC60FCF0FC63B6826F8023B1B0CAE
:103790003370DAE731460CF009FE2068C8E700BF55
:1037A000B4EE00207CEE002090EE0020508C020051
:1037B00080EE0020688C020088EE00208CEE002055
:1037C00094EE0020A0EE002098EE002084EE002071
:1037D00078EE0020B08C02007C8C02002DE9F041D4
:1037E00004468220B6B020600CF02AFC06468620F3
:1037F00020600CF025FC4D4D8A2307462360286885
:10380000FCF736FE33460190494A0097C82104A8C8
:103810001EF0C6FE012204A92868FCF737FE721EBE
:1038200040F6FE739A4200D87FB9424A0097C821F9
:10383000334604A81EF0B4FE04A928680122FCF750
:1038400025FE012036B0BDE8F0812868FCF710FEA7
:10385000B8421FD02868FCF70BFE804638461CF0A3
:1038600049FF0022344B1DF0E5F8CDE90201404646
:103870001CF050FF0022304B1DF0DCF82F4ACDE940
:103880000001C82104A81EF08BFE012204A92868AB
:10389000FCF7FCFD2A4B186806F0C8F8294B18689D
:1038A0000AF0CAFA284B1868FEF7BCFF274B1868C5
:1038B0000AF03EFF264B186807F02CF9254B1868D4
:1038C0000BF046FB244B186806F042FC234B1868AB
:1038D00007F0AEFA224B186804F0BCF8214B1868C8
:1038E00005F0FCFC2368823BB342AAD0822323600C
:1038F0000CF064FC0028FBD02068B0F5805F03DA90
:1039000000210CF053FD2068174A04302060334634
:103910000090C82104A81EF043FE04A928680122D3
:10392000FCF7B4FD002036B0BDE8F081B4EE002015
:10393000DC8C0200B48D020000002440248D0200C3
:103940007CEE002080EE002088EE00208CEE00202F
:1039500094EE002090EE0020A0EE002098EE0020D3
:1039600084EE002078EE0020688D020038B5032236
:103970000C46054608460B491FF010F960B1204679
:10398000032209491FF00AF908B1002038BD284672
:10399000FFF770FE012038BD2846FFF71FFF01200A
:1039A00038BD00BF008E0200048E0200036870B5AF
:1039B0001446234440F2FD7293420FDC05460E4646
:1039C0000CF0FCFB0028FBD03046224629680CF0A6
:1039D000AFFD2B681C442C60012070BD002070BD21
:1039E000F8B5036817463B4440F2FD72934215DC7C
:1039F00006460D460CF0E2FB0028FBD0002FC8BFA6
:103A00007F1909DD346820460CF06AFA013434600D
:103A100005F8010BBD42F5D10120F8BD0020F8BD2D
:103A20000CF016BAFFFFFFFF30B51E4C1E4B43676C
:103A30000546CFB020681D490122FCF727FDEA6941
:103A40006B69009203A81A4A4FF496711EF0A8FD04
:103A500003A920680122FCF719FD206815490122FD
:103A6000FCF714FD144B0022CDE9002303A8134AF0
:103A70004FF496711EF094FD03A920680122FCF713
:103A800005FD20680E490122FCF700FD20680D4964
:103A90000122FCF7FBFC20680B490122FCF7F6FC35
:103AA0004FB030BDB4EE00205419FF1F088E020045
:103AB000148E0200308E0200000004404C8E020082
:103AC000788E0200AC8E0200C88E0200F0B4012293
:103AD0001349144DC2600A2400224FF07E5700267D
:103AE000076106620563C461C4630270427082703C
:103AF00082604261826142628262C26280F83420E6
:103B00008263C26580F8642080F86C204164C164DF
:103B100041650166816601674167F0BC704700BF7F
:103B20005419FF1FA086010070B5374D374E0FCDD9
:103B3000CEB003AC0FC40FCD0FC40FCD0FC495E8AA
:103B40000F0007C4324D24F8023B03A91B0C306858
:103B500023700122FCF79AFC0FCD03AC0FC40FCDEC
:103B60000FC40FCD0FC495E8030044F8040B0122E5
:103B700021803068274D03A9FCF788FC03A8612247
:103B800025491EF0B3F903A930680122FCF77EFC39
:103B90000FCD03AC0FC40FCD0FC40FCD0FC495E8EC
:103BA0000F0007C424F8023B1B0C237003A93068E4
:103BB0001A4D0122FCF76AFC194B1A4A19684B6925
:103BC000C969009103A84FF496711EF0E9FC03A99E
:103BD00030680122FCF75AFC0FCD03AC0FC495E806
:103BE0000F0007C403A9306823800122FCF74EFCB4
:103BF00003A847220C491EF079F903A93068012275
:103C0000FCF744FC4EB070BDE08E0200B4EE002024
:103C1000208F0200BC8F0200588F02002C900200FF
:103C2000B8EE0020FC8F02004C90020000B500238B
:103C30009BB08370074A4369642101A81EF0B0FC61
:103C4000054B01A918680122FCF720FC1BB05DF8A8
:103C500004FB00BF94900200B4EE002030B504468F
:103C60009DB000691CF068FD00221F4B1CF0E2FEB5
:103C70001BA3D3E900231CF0DDFE1DF0A9F81AF008
:103C800083FE1DF0DFFB194BE0601B68A36001257C
:103C90000023636184F8403084F8483084F8583059
:103CA00084F8503084F864302370114AA5702B21B9
:103CB00010481EF019FAE368206902931CF03CFDDD
:103CC0000D4ACDE9000105A85A211EF069FC0B4BF5
:103CD0002A4605A91868FCF7D9FB1DB030BD00BF06
:103CE0007B14AE47E17A643F00408F4068EE0020CD
:103CF000C0D401005419FF1FB8900200B4EE002098
:103D0000F0B50446B7B00069294F2A4E1CF014FDE7
:103D10000022294B1CF08EFE23A3D3E900231CF0C4
:103D200089FE1DF055F81AF02FFE1DF08BFB234B7A
:103D3000E0601B68A360012500233A46636184F8B4
:103D4000403084F8483084F8583084F8503084F893
:103D500064302370A5702B2119481EF0C5F9E36863
:103D6000206902931CF0E8FC164ACDE9000104A882
:103D70005A211EF015FC2A4604A93068FCF786FB80
:103D800040F6A663009704A8E36184F840500E4A09
:103D9000C8211EF005FC2A4604A93068FCF776FB12
:103DA00037B0F0BDAFF300807B14AE47E17A643FDB
:103DB000C0D40100B4EE002000408F4068EE002027
:103DC0005419FF1FB8900200E090020090F85820AC
:103DD000034612B990F8482042B19A782AB90C49A2
:103DE0005A610A689A6001229A70704790F86420BC
:103DF000002AF2D190F85020002AEED190F840200D
:103E0000002AEAD190F86C20002AE6D1FFF778BFAB
:103E100068EE002070B58369591CDEB002463FD0C1
:103E2000466C10935D017419E0691CF085FCCDE9C6
:103E30000E01A0691CF080FCCDE90C0120691CF08A
:103E40007BFCCDE90A0160691CF076FCCDE9080134
:103E5000E0681CF071FCCDE90601A0681CF06CFC68
:103E6000CDE9040160681CF067FCCDE902017059DE
:103E70001DF0B8F81CF060FC2C4B00221CF0DAFDA1
:103E80002B4ACDE9000113A84FF496711EF088FB70
:103E9000284B13A918680122FCF7F8FA5EB070BD30
:103EA000C0685569234C1CF035FC00221F4B1CF0E8
:103EB000C1FD2B46CDE900011F4A13A84FF49671AE
:103EC0001EF06EFB13A920680122FCF7DFFA2068C0
:103ED0001A490122FCF7DAFA206819490122FCF795
:103EE000D5FA206817490122FCF7D0FA2068164954
:103EF0000122FCF7CBFA206814490122FCF7C6FA2C
:103F0000206813490122FCF7C1FA206811490122F7
:103F1000FCF7BCFA206810490122FCF7B7FA2068C8
:103F20000E490122FCF7B2FA5EB070BD00005940A4
:103F300020920200B4EE00200C910200F4840200F2
:103F4000088502004491020080910200B0910200B5
:103F5000CC910200E8910200049202006C860200FB
:103F60001349144A09681268F8B54369124D846808
:103F7000466C2D6848786F685B01121BF418F2508C
:103F8000AB68A360676068B9B1F92C001DF02AF82E
:103F9000EE6DE9692A6E6B6EE361E0602661616136
:103FA000A261F8BDB1F98C001DF01CF8F0E700BF6C
:103FB0007CEE002068EE002078EE00202DE9F04134
:103FC0008369591CADF5047D02466DD0C66C03EBC8
:103FD00003139D007419B4F93C302093206C1CF03D
:103FE000ABFBCDE91E01606A1CF0A6FBCDE91C010C
:103FF000206A1CF0A1FBCDE91A01E0691CF09CFBD2
:10400000CDE91801606B1CF097FBCDE91601A06BA0
:104010001CF092FBCDE91401206B1CF08DFBCDE967
:104020001201A06A1CF088FBCDE91001E06A1CF0C7
:1040300083FBCDE90E01A0691CF07EFBCDE90C01EC
:1040400060691CF079FBCDE90A0120691CF074FB62
:10405000CDE90801E0681CF06FFBCDE90601A0681E
:104060001CF06AFBCDE9040160681CF065FBCDE93A
:10407000020170591CF0B6FF1CF05EFB724B00226F
:104080001CF0D8FC714ACDE900014FF4AF712CA8A7
:104090001EF086FA6E4B2CA918680122FCF7F6F97F
:1040A0000DF5047DBDE8F081C0685469684DDFF806
:1040B000F0811CF02FFB62A3D3E900231CF090FBDE
:1040C0000022644B1CF08CFB2346CDE90001624AC0
:1040D0004FF4AF712CA81EF063FA2CA901222868B6
:1040E000FCF7D4F9D8F800305C4A93F824324FF446
:1040F000AF712CA81EF054FA2CA928680122FCF7F5
:10410000C5F9D8F800300DF18C0E03F1140403F159
:10411000340720686168A268E36876460FC61034E9
:10412000BC42B646F5D12068306025981CF004FBEF
:10413000CDE9040124981CF0FFFACDE9020123988F
:104140001CF0FAFA464ACDE900014FF4AF712CA8F1
:104150001EF026FA01222CA92868FCF797F9289866
:104160001CF0EAFACDE9040127981CF0E5FACDE944
:10417000020126981CF0E0FA3A4ACDE900014FF41A
:10418000AF712CA81EF00CFA01222CA92868FCF7AC
:104190007DF9D8F80030D3F810021CF0CDFA324A7D
:1041A000CDE900014FF4AF712CA81EF0F9F92CA94C
:1041B00001222868FCF76AF901222C492868FCF7DB
:1041C00065F901222A492868FCF760F9012229498A
:1041D0002868FCF75BF9012227492868FCF756F9A3
:1041E000012226492868FCF751F901222449286850
:1041F000FCF74CF9012223492868FCF747F9012212
:1042000021492868FCF742F9012220492868FCF777
:104210003DF901221E492868FCF738F901221D49A1
:104220002868FCF733F901221B492868FCF72EF9AE
:1042300028681A490122FCF729F931E7AFF3008019
:104240007B14AE47E17A643F000059406494020059
:10425000B4EE002000408F4050920200889202008D
:10426000A8920200C8920200E8920200F4840200C0
:10427000009302001893020034930200549302004A
:104280007893020094930200B4930200D893020042
:10429000FC93020024940200449402006C86020005
:1042A00080EE002070B504469CB00069264E1CF0DC
:1042B00043FA0022254B1CF0BDFB21A3D3E90023C8
:1042C0001CF0B8FB1CF084FD1AF05EFB1DF0BAF880
:1042D0001F4BE0601B68A36001250023636184F825
:1042E000403084F8483084F8583084F8503084F8EE
:1042F00064302370174AA5702B2117481DF0F4FE77
:10430000E368206902931CF017FA144ACDE9000112
:1043100005A85A211EF044F905A92A463068FCF781
:10432000B5F840F2E46384F848502A463068E36107
:104330000B49FCF7ABF81CB070BD00BFAFF30080B9
:104340007B14AE47E17A643FB4EE002000408F401A
:1043500068EE0020C0D401005419FF1FB89002007D
:104360009C94020070B504469CB00069264E1CF077
:10437000E3F90022254B1CF05DFB21A3D3E90023C8
:104380001CF058FB1CF024FD1AF0FEFA1DF05AF840
:104390001F4BE0601B68A36001250023636184F864
:1043A000403084F8483084F8583084F8503084F82D
:1043B00064302370174AA5702B2117481DF094FE16
:1043C000E368206902931CF0B7F9144ACDE90001B3
:1043D00005A85A211EF0E4F805A92A463068FCF722
:1043E00055F840F6B83384F858502A463068E361EF
:1043F0000B49FCF74BF81CB070BD00BFAFF3008059
:104400007B14AE47E17A643FB4EE002000408F4059
:1044100068EE0020C0D401005419FF1FB8900200BC
:10442000B8940200F8B5274A4369274CC16C256847
:1044300080681268D5F81062D5F8BCE0D5F8C07075
:1044400003EB03139B00CC18121ACA50D5F8C40012
:10445000D5F8CC20D5F8C810D5F8D030C4F804E091
:10446000A760E0602161D5F808026261A36131466E
:104470001CF002FD154B164A1B681268D3F800C0E9
:10448000D3F808E05768D5F8F011D5F8F421D5F83D
:10449000F831C4F82CC0C4F834E0A0622262B5F947
:1044A000660063622663A763E1611CF033F9094B80
:1044B00000221CF095F91CF08BFCD5F82032A38764
:1044C0002064F8BD68EE002080EE0020A0EE002001
:1044D00098EE00200000B03F2DE9F0430B78B9B012
:1044E000202B059105460C4604D114F8013F202BE2
:1044F000FBD0059403229E4920461EF04FFB002866
:1045000000F0DA8003229B4920461EF047FB00287A
:1045100000F0B5800023EB65202120461EF08EF8C8
:10452000059058B105A91FF0B7FD4FF07E51064622
:104530001CF04AFF002840F013812E6105228E49AD
:1045400020461EF02BFB0646002800F0398104228D
:104550008A4920461EF022FB0646002800F0B6805D
:104560000522874920461EF019FB0646002800F068
:10457000CE810422834920461EF010FB0646002807
:1045800000F00F820322804920461EF007FB0646FA
:10459000002800F0508203227C4920461EF0FEFADB
:1045A0000646002800F063810522794920461EF066
:1045B000F5FA002840F0A882764B1B681B68EB6573
:1045C000002B45D02869744F1CF0B6F80022734BBD
:1045D0001CF030FA64A3D3E900231CF02BFA1CF082
:1045E000F7FB1AF0D1F91CF02DFF6D4B6D4A1B68DB
:1045F000AB6001260023E8606B6185F8403085F8E8
:10460000483085F8583085F8503085F864302B7084
:104610002B21AE7064481DF067FDEB68286902939A
:104620001CF08AF8614ACDE900015A2106A81DF064
:10463000B7FF06A932463868FBF728FF40F6B833C3
:1046400085F8586032463868EB615949FBF71EFF20
:10465000AB7883B1286902941CF06EF8554ACDE915
:104660000001642106A81DF09BFF4B4B06A91868AA
:104670000122FBF70BFF012039B0BDE8F0830334C2
:10468000204605941EF01CFA0428F4D905A90A2234
:1046900020461FF0BFFD05A9A8630A2205981FF058
:1046A000B9FDAB6BE86313B1002840F0DC80002358
:1046B00085F834300120DFE701204FF0FF336870C8
:1046C00085F83400AB6139B0BDE8F0832869DFF8C4
:1046D000C8801CF031F80022304B1CF0ABF922A34B
:1046E000D3E900231CF0A6F91CF072FB1AF04CF978
:1046F0001CF0A8FE2A4B2B4A1B68E8600127AB6020
:104700002B216E6185F8406085F8486085F8586017
:1047100085F8506085F864602E70AF7022481DF0F7
:10472000E3FCEB68286902931CF006F81F4ACDE908
:1047300000015A2106A81DF033FF06A93A46D8F811
:104740000000FBF7A3FE4FF4FA63EB6185F85070AD
:104750003A46D8F800001849FBF798FEEB6D2FE7B2
:10476000164B2B61EAE600BF7B14AE47E17A643F4B
:10477000D4940200D8940200DC940200E494020075
:10478000E08702002895020050950200549502002F
:10479000B887020088EE0020B4EE002000408F4071
:1047A00068EE0020C0D401005419FF1FB890020029
:1047B000B8940200C8950200EC940200000020406A
:1047C0002869DFF83093DFF83C831BF0B5FF002247
:1047D000C14B1CF02FF9BEA3D3E900231CF02AF92A
:1047E0001CF0F6FA1AF0D0F81CF02CFEBB4BE86077
:1047F0001B68AB6001274A462B216E6185F840603B
:1048000085F8486085F8586085F8506085F86460E0
:104810002E70AF70B2481DF067FCEB6828690293F8
:104820001BF08AFFAF4ACDE900015A2106A81DF00E
:10483000B7FE3A4606A9D8F80000FBF727FE40F677
:10484000A663CDF80090A84AEB61C82185F84070B6
:1048500006A81DF0A5FE3A4606A9D8F80000FBF709
:1048600015FEEB6DACE6012085F8340004E72869FD
:10487000DFF88092DFF88C821BF05EFF0022964BFF
:104880001CF0D8F892A3D3E900231CF0D3F81CF055
:104890009FFA1AF079F81CF0D5FD904BE8601B6880
:1048A000AB6001274A462B216E6185F8406085F890
:1048B000486085F8586085F8506085F864602E700F
:1048C000AF7087481DF010FCEB68286902931BF05D
:1048D00033FF844ACDE900015A2106A81DF060FE8D
:1048E00006A93A46D8F80000FBF7D0FD7F4BC5F883
:1048F0001C901968A96742F21073EB602F703A465A
:10490000D8F800007A49FBF7C1FDEB6D58E628693D
:10491000DFF8F0811BF010FF00226F4B1CF08AF8CB
:104920006BA3D3E900231CF085F81CF051FA1AF0B0
:104930002BF81CF087FD694B6E4A1B68E860012765
:10494000AB602B216E6185F8406085F8486085F882
:10495000586085F8506085F864602E70AF706048CC
:104960001DF0C2FBEB68286902931BF0E5FE5D4A6F
:10497000CDE900015A2106A81DF012FE06A93A460B
:10498000D8F80000FBF782FD41F2BD03EB6185F82A
:1049900064703A46D8F800005749FBF777FDEB6D95
:1049A0000EE62869DFF85C811BF0C6FE00224A4B48
:1049B0001CF040F846A3D3E900231CF03BF81CF0A0
:1049C00007FA19F0E1FF1CF03DFD444B494A1B6812
:1049D000E8600127AB602B216E6185F8406085F8A7
:1049E000486085F8586085F8506085F864602E70DE
:1049F000AF703B481DF078FBEB68286902931BF011
:104A00009BFE384ACDE900015A2106A81DF0C8FDD9
:104A100006A93A46D8F80000FBF738FD40F2537378
:104A2000EB6185F86C703A46D8F800003349FBF723
:104A30002DFDEB6DC4E52869DFF8C8801BF07CFE16
:104A40000022254B1BF0F6FF21A3D3E900231BF026
:104A5000F1FF1CF0BDF919F097FF1CF0F3FC1F4BA0
:104A6000244A1B68E8600127AB602B216E6185F842
:104A7000406085F8486085F8586085F8506085F892
:104A800064602E70AF7016481DF02EFBEB6828692D
:104A900002931BF051FE134ACDE900015A2106A8EA
:104AA0001DF07EFD06A93A46D8F80000FBF7EEFCA3
:104AB00040F2E463EB6185F848703A46D8F80000AC
:104AC0000F49FBF7E3FCEB6D7AE500BFAFF3008025
:104AD0007B14AE47E17A643F00408F4068EE0020CF
:104AE0005419FF1FB8900200E09002006CEE002005
:104AF00058950200C0D401000895020030950200CC
:104B00009C940200B4EE002004222A4920461EF0A4
:104B100045F820B9284B1B681B69EB6550E5062258
:104B2000264920461EF03AF850B104222449204676
:104B30001EF034F848B9204B1B689B68EB653FE5D5
:104B40001D4B1B685B68EB653AE506221D49204654
:104B50001EF024F820B9184B1B68DB68EB652FE5C5
:104B60000622194920461EF019F820B9124B1B687D
:104B7000DB69EB6524E50422144920461EF00EF89B
:104B800050B92846FFF752F8114B12491868012214
:104B9000FBF77CFCEB6D13E523460F4A642106A866
:104BA0001DF0FEFC0A4B06A918680122FBF76EFCFB
:104BB000002061E5D887020088EE0020C08702004F
:104BC000C8870200D0870200749502008095020019
:104BD000B4EE0020889502009C95020010B50446B2
:104BE000C06D82B030B16369A269216EE46800943F
:104BF000FDF7E8FB02B010BD4369074A016E126879
:104C000010B403EB83038468C06DDB00121BCA5031
:104C100010BC1944FDF7B2BB68EE002070B5044625
:104C20009CB00069264E1BF087FD0022254B1BF02F
:104C300001FF21A3D3E900231BF0FCFE1CF0C8F800
:104C400019F0A2FE1CF0FEFB1F4BE0601B68A36086
:104C500001250023636184F8403084F8483084F8EB
:104C6000583084F8503084F864302370174AA570A7
:104C70002B2117481DF038FAE368206902931BF0D6
:104C80005BFD144ACDE9000105A85A211DF088FCFE
:104C900005A92A463068FBF7F9FB4FF4FA6384F85C
:104CA00050502A463068E3610B49FBF7EFFB1CB01C
:104CB00070BD00BFAFF300807B14AE47E17A643F64
:104CC000B4EE002000408F4068EE0020C0D4010008
:104CD0005419FF1FB8900200EC9402004369234A64
:104CE00023491268F0B5C3EB0313466D84680D6861
:104CF000204995F8327009689B00121BF418F25095
:104D000027714369446D2F781B4A1C4D12681C4E55
:104D1000C3EB031304EB83035F714469436DD1F864
:104D200058E090685768C4EB041403EB8403C3F89D
:104D300008E0CC6DDC600C6E1C614C6ED1681269B1
:104D40005C61D86119629F615A622A683168D2F841
:104D5000FC410D68D2F800028968D2F8D0205A636D
:104D60009D62DC6218639963F0BD00BF68EE0020AD
:104D700090EE002088EE002084EE002080EE0020DF
:104D8000A0EE002070B58369591CEAB0024662D0DB
:104D9000466DC3EB03139D007419A06B1BF0CCFC94
:104DA000CDE91C01606B1BF0C7FCCDE91A01206B3B
:104DB0001BF0C2FCCDE91801E06A1BF0BDFCCDE997
:104DC0001601A06A1BF0B8FCCDE91401606A1BF063
:104DD000B3FCCDE91201206A1BF0AEFCCDE9100155
:104DE000E0691BF0A9FCCDE90E01A0691BF0A4FC51
:104DF000CDE90C0160691BF09FFCCDE90A01206937
:104E00001BF09AFCCDE90801E0681BF095FCCDE9A8
:104E10000601A0681BF090FCCDE9040163790393BF
:104E20002379029370591CF0DDF81BF085FC484B88
:104E300000221BF0FFFD474ACDE900011FA84FF4F7
:104E400096711DF0ADFB444B1FA918680122FBF7BA
:104E50001DFB6AB070BDC06855693F4C1BF05AFC21
:104E600039A3D3E900231BF0BBFC00223B4B1BF012
:104E7000B7FC2B46CDE90001394A1FA84FF49671C3
:104E80001DF08EFB1FA920680122FBF7FFFA2068A6
:104E900034490122FBF7FAFA206833490122FBF773
:104EA000F5FA206831490122FBF7F0FA2068304911
:104EB0000122FBF7EBFA20682E490122FBF7E6FA04
:104EC00020682D490122FBF7E1FA20682B490122D5
:104ED000FBF7DCFA20682A490122FBF7D7FA2068A1
:104EE00028490122FBF7D2FA206827490122FBF763
:104EF000CDFA206825490122FBF7C8FA2068244929
:104F00000122FBF7C3FA206822490122FBF7BEFA0F
:104F1000206821490122FBF7B9FA20681F490122C4
:104F2000FBF7B4FA20681E490122FBF7AFFA2068AC
:104F30001C490122FBF7AAFA20681B490122FBF752
:104F4000A5FA6AB070BD00BF7B14AE47E17A643F3A
:104F50000000594084980200B4EE002000408F40C9
:104F6000FC950200F48402003C9602005096020078
:104F700084960200C4960200E8960200049702009C
:104F8000209702003C97020070970200949702005D
:104F9000B8970200DC9702000498020020980200F3
:104FA0003C9802005C9802007C98020070B50446B0
:104FB0009CB0016108461BF0BFFB0022244B254E2C
:104FC0001BF038FD20A3D3E900231BF033FD1BF0B9
:104FD000FFFE19F0D9FC1CF035FA1F4BE0601B688E
:104FE000A36001250023636184F8403084F84830D1
:104FF00084F8583084F8503084F864302370174AAD
:10500000A5702B2116481DF06FF8E3682069029304
:105010001BF092FB134ACDE9000105A85A211DF0AF
:10502000BFFA05A92A463068FBF730FA41F2BD0302
:1050300084F864502A463068E3610B49FBF726FA8E
:105040001CB070BDAFF300807B14AE47E17A643FC3
:1050500000408F40B4EE002068EE0020C0D4010074
:105060005419FF1FB8900200089502004369184ABE
:1050700018491268F0B4C3EBC303866E85680C68E8
:10508000154994F8327009689B00521BF518F250CC
:105090002F714369826E2578104E114C3768246851
:1050A000C3EBC30302EB83035D714369826E0E6E33
:1050B000056AE468D7F80002C3EBC30302EB83037D
:1050C0009E600A6DDA605D611C619861F0BC70479A
:1050D00068EE002090EE002088EE002080EE002098
:1050E00084EE002070B58369591CDAB002463AD0CC
:1050F000866EC3EBC3039C003519A8691BF01CFB2B
:10510000CDE90C0128691BF017FBCDE90A0168699C
:105110001BF012FBCDE90801E8681BF00DFBCDE99F
:105120000601A8681BF008FBCDE904016B79039325
:105130002B79029330591BF055FF1BF0FDFA344BCD
:1051400000221BF077FC334ACDE900010FA84FF491
:1051500096711DF025FA304B0FA918680122FBF754
:1051600095F95AB070BDC06855692B4C1BF0D2FA46
:1051700025A3D3E900231BF033FB0022274B1BF0B0
:105180002FFB2B46CDE90001254A0FA84FF496715D
:105190001DF006FA0FA920680122FBF777F92068B5
:1051A00020490122FBF772F920681F490122FBF711
:1051B0006DF920681D490122FBF768F920681C4938
:1051C0000122FBF763F920681A490122FBF75EF917
:1051D000206819490122FBF759F920681749012273
:1051E000FBF754F9206816490122FBF74FF92068B4
:1051F00014490122FBF74AF9206813490122FBF701
:1052000045F95AB070BD00BF7B14AE47E17A643FE8
:1052100000005940C8990200B4EE002000408F40C1
:10522000D4980200F48402003C96020050960200DA
:105230008496020014990200349902005C990200DD
:1052400088990200AC9902007C98020070B504466F
:105250009CB0016108461BF06FFA0022244B254EDA
:105260001BF0E8FB20A3D3E900231BF0E3FB1BF0BA
:10527000AFFD19F089FB1CF0E5F81F4BE0601B68DF
:10528000A36001250023636184F8403084F848302E
:1052900084F8583084F8503084F864302370174A0A
:1052A000A5702B2116481CF01FFFE36820690293AC
:1052B0001BF042FA134ACDE9000105A85A211DF05E
:1052C0006FF905A92A463068FBF7E0F840F25373FE
:1052D00084F86C502A463068E3610B49FBF7D6F836
:1052E0001CB070BDAFF300807B14AE47E17A643F21
:1052F00000408F40B4EE002068EE0020C0D40100D2
:105300005419FF1FB890020030950200214B224A29
:105310001B6812682149F0B44469066F8568204F04
:1053200009683F68A4015D1B33193551566B956BB5
:10533000946A5E60D66ADD60156B1C61D46B5E6139
:10534000966C1E629D61D66C156DDC61146C526C9E
:105350001F81D1F8C8705E629D62DC621A63D1F869
:105360003422D1F8986083F83C204569026FD1F867
:105370002C425F639E6302EB851383F83D404469D2
:10538000036FD1F8302203EB841383F83E20F0BC86
:10539000704700BF68EE002078EE002080EE00200D
:1053A000B0EE00202DE9F041A74B9EB004461868EE
:1053B0000D4609F053F900284CD0A678002E4ED1A6
:1053C000A24B23614FF0814019F0DEFA1CF03AF84D
:1053D0009F4BA04A1B68E0600127A3602B216661F8
:1053E00084F8406084F8486084F8586084F850601D
:1053F00084F864602670A7709748DFF87C821CF000
:1054000073FEE368206902931BF096F9934ACDE995
:1054100000015A2105A81DF0C3F805A93A46D8F89D
:105420000000FBF733F84FF4FA633A46E3618C4926
:1054300084F85070D8F80000FBF728F83A468949FC
:10544000D8F80000FBF722F8D8F80000864A874910
:10545000FBF7D6F8A37813B91EB0BDE8F081E66873
:10546000012E67DDB5FBF6F394F8647006FB135567
:10547000B5FA85F56D09AFB1701E1BF0B3FD216A59
:105480001BF004FE7A4B1B68D3F8C8101BF0F6FC27
:10549000074630461BF0A6FD014638461BF0AAFE23
:1054A00001272062002DD7D023783BB363695D1EAE
:1054B00070486B1C83FB00011944DA17C2EB211200
:1054C000C2EB0212B3EB420F636139D0E2699A4238
:1054D000C2DC694D0022A27005A8684A64211DF053
:1054E0005FF805A928680122FAF7D0FF2868644907
:1054F0000122FAF7CBFF1EB0BDE8F08194F84030EE
:10550000002B2CD194F84830002B58D194F8583007
:10551000002B59D194F85030002B4BD1002F63D180
:1055200094F86C30002B00F0B9802046FFF7EEFEB7
:105530006569BDE794F86470002FB5D001259BE73D
:10554000E269009264214F4A05A81DF029F84A4BF0
:1055500005A918680122FAF799FF6369B6E74A4A74
:105560003B4B65691068494EA2681B68616C3768DF
:1055700090F801E09B1A6A018E188B507A68BB681C
:10558000B3607260BEF1000F0FD1B0F92C001BF0B8
:1055900029FDD7F85CE0F9693A6E7B6EF361F06043
:1055A000C6F810E07161B26182E7B0F98C001BF0BF
:1055B00019FDEEE72046FFF791FB656978E7204685
:1055C000FEF730FF656973E76369214AA5681268D1
:1055D000216EE06D03EB8303DB00521BCA501944BC
:1055E000FCF7CCFE656963E76369194A2849A66E32
:1055F000A56812680868274990F832700968C3EBFB
:10560000C3039B00521BF518F2502F716369A26E01
:105610000578174E204836680068C3EBC30302EBD9
:1056200083035D716569A36ED6F800220F6EC068B2
:10563000C5EBC50603EB8603266A9F60096DD9603A
:105640005E6118619A6133E78CEE00200000204112
:1056500068EE0020C0D401005419FF1FB89002006A
:10566000EC940200349A020070860200449A020010
:1056700080EE002089888888B4EE00209490020093
:10568000289A0200149A02007CEE002078EE002096
:1056900090EE002088EE002084EE0020094D0A499B
:1056A00028680122FAF7F2FEA7706369074A05A885
:1056B00064211CF075FF05A928680122FAF7E6FEAF
:1056C000CAE600BFB4EE0020EC99020094900200FC
:1056D0002DE9F0438269511CEDB0034600F0A6802D
:1056E000076F9601BC19636AA06AE569D4F8108057
:1056F000D4F82C90C01A1BF071FC8D491BF0C6FC2D
:105700001BF01AF8CDE91E0194F83E301C9394F872
:105710003D301B9394F83C301A93A06B1BF00CF8AF
:10572000CDE91801606B1BF007F8CDE91601206B7D
:10573000401B1BF053FC7E491BF0A8FC1AF0FCFF39
:10574000CDE91401206AC0EB09001BF047FC784941
:105750001BF09CFC1AF0F0FFCDE91201C5EB09002B
:105760001BF03CFC72491BF091FC1AF0E5FFCDE9FF
:10577000100128461BF032FC6D491BF087FC1AF023
:10578000DBFF00226B4B1BF055F9CDE90E01A06940
:105790001BF024FC66491BF079FC1AF0CDFFCDE923
:1057A0000C016069C8EB00001BF018FC60491BF09D
:1057B0006DFC1AF0C1FFCDE90A0140461BF00EFC5A
:1057C0005B491BF063FC1AF0B7FFCDE90801E06804
:1057D0001BF004FC56491BF059FC1AF0ADFFCDE953
:1057E00006012389049360681BF0F8FB50491BF005
:1057F0004DFC1AF0A1FFCDE90201B8591BF0F2FBF4
:105800004D491BF0F7FC1AF097FF4C4ACDE9000117
:1058100021A84FF496711CF0C3FE494B21A91868CA
:105820000122FAF733FE6DB0BDE8F083C0685D6910
:10583000434C1AF06FFF3CA3D3E900231AF0D0FFCA
:1058400000223C4B1AF0CCFF2B46CDE900013D4A2B
:1058500021A84FF496711CF0A3FE21A92068012213
:10586000FAF714FE206838490122FAF70FFE206883
:1058700036490122FAF70AFE206835490122FAF773
:1058800005FE206833490122FAF700FE20683249FC
:105890000122FAF7FBFD206830490122FAF7F6FDF4
:1058A00020682F490122FAF7F1FD20682D490122D5
:1058B000FAF7ECFD20682C490122FAF7E7FD206891
:1058C0002A490122FAF7E2FD206829490122FAF764
:1058D000DDFD206827490122FAF7D8FD2068264916
:1058E0000122FAF7D3FD206824490122FAF7CEFD00
:1058F000206823490122FAF7C9FD206821490122C5
:10590000FAF7C4FD206820490122FAF7BFFD20689C
:105910001E490122FAF7BAFD20681D490122FAF753
:10592000B5FD6DB0BDE8F0837B14AE47E17A643F0E
:1059300065CF0B3700408F400000C842E89C020052
:10594000B4EE0020609A0200F48402009C9A0200E7
:10595000BC9A0200E49A0200049B0200209B020011
:10596000449B0200609B0200849B0200A89B0200F3
:10597000CC9B0200F49B0200189C0200349C0200A5
:105980004C9C0200709C0200949C0200BC9C020093
:105990007C980200F0B54669BBB00446002E00F0CA
:1059A0009D80456A806A276B904238BFA262E26A96
:1059B0009A42B8BFE362BB42BCBF23631F46624A40
:1059C000A3692944D81782FB0352C0EBA20202EB61
:1059D0008202B3EB4205616252D094F84030002B52
:1059E00042D194F84830002B40F0828094F858302F
:1059F0004BB1E06D38B1E5686369A269216E00952D
:105A0000FCF7E0FC33E094F85030002B74D194F8AC
:105A10006430002B74D194F86C30002B40F08780F8
:105A20002378002B70D0A269531C00F08480636936
:105A30009B1A012B40F38380616F4A781F2A6AD931
:105A4000481C012203E010F8015F1F2D64D90132C8
:105A50009342F8D116463D4B18680123FBF786F8B0
:105A6000636F1E44666702E02046FEF7D3F9A36920
:105A7000626901339342A3611FDA01203BB0F0BD9C
:105A8000A26B039794F834700191E16A0096069234
:105A9000A26A029204912E4A0597C82108A81CF018
:105AA0007FFD2A4B08A918680122FAF7EFFC294B61
:105AB0006562A562E56223638FE70022627062621D
:105AC00008A8254AC8211CF06BFD204B08A91868BE
:105AD0000122FAF7DBFC01203BB0F0BD1B4B1F4954
